{
  "contractName": "StateMachine",
  "abi": [
    {
      "inputs": [
        {
          "internalType": "uint256",
          "name": "_amount",
          "type": "uint256"
        },
        {
          "internalType": "uint256",
          "name": "_interest",
          "type": "uint256"
        },
        {
          "internalType": "uint256",
          "name": "_duration",
          "type": "uint256"
        },
        {
          "internalType": "address payable",
          "name": "_borrower",
          "type": "address"
        },
        {
          "internalType": "address payable",
          "name": "_lender",
          "type": "address"
        }
      ],
      "stateMutability": "nonpayable",
      "type": "constructor"
    },
    {
      "inputs": [],
      "name": "amount",
      "outputs": [
        {
          "internalType": "uint256",
          "name": "",
          "type": "uint256"
        }
      ],
      "stateMutability": "view",
      "type": "function",
      "constant": true
    },
    {
      "inputs": [],
      "name": "borrower",
      "outputs": [
        {
          "internalType": "address payable",
          "name": "",
          "type": "address"
        }
      ],
      "stateMutability": "view",
      "type": "function",
      "constant": true
    },
    {
      "inputs": [],
      "name": "end",
      "outputs": [
        {
          "internalType": "uint256",
          "name": "",
          "type": "uint256"
        }
      ],
      "stateMutability": "view",
      "type": "function",
      "constant": true
    },
    {
      "inputs": [],
      "name": "interest",
      "outputs": [
        {
          "internalType": "uint256",
          "name": "",
          "type": "uint256"
        }
      ],
      "stateMutability": "view",
      "type": "function",
      "constant": true
    },
    {
      "inputs": [],
      "name": "lender",
      "outputs": [
        {
          "internalType": "address payable",
          "name": "",
          "type": "address"
        }
      ],
      "stateMutability": "view",
      "type": "function",
      "constant": true
    },
    {
      "inputs": [],
      "name": "state",
      "outputs": [
        {
          "internalType": "enum StateMachine.State",
          "name": "",
          "type": "uint8"
        }
      ],
      "stateMutability": "view",
      "type": "function",
      "constant": true
    },
    {
      "inputs": [],
      "name": "fund",
      "outputs": [],
      "stateMutability": "payable",
      "type": "function",
      "payable": true
    },
    {
      "inputs": [],
      "name": "reimburse",
      "outputs": [],
      "stateMutability": "payable",
      "type": "function",
      "payable": true
    }
  ],
  "bytecode": "0x608060405260008060006101000a81548160ff021916908360028111156200002c576200002b62000113565b5b02179055503480156200003e57600080fd5b50604051620010cd380380620010cd8339818101604052810190620000649190620001e7565b846001819055508360028190555082426200008091906200029e565b60038190555081600460006101000a81548173ffffffffffffffffffffffffffffffffffffffff021916908373ffffffffffffffffffffffffffffffffffffffff16021790555080600560006101000a81548173ffffffffffffffffffffffffffffffffffffffff021916908373ffffffffffffffffffffffffffffffffffffffff1602179055505050505050620002fb565b7f4e487b7100000000000000000000000000000000000000000000000000000000600052602160045260246000fd5b600080fd5b6000819050919050565b6200015c8162000147565b81146200016857600080fd5b50565b6000815190506200017c8162000151565b92915050565b600073ffffffffffffffffffffffffffffffffffffffff82169050919050565b6000620001af8262000182565b9050919050565b620001c181620001a2565b8114620001cd57600080fd5b50565b600081519050620001e181620001b6565b92915050565b600080600080600060a0868803121562000206576200020562000142565b5b600062000216888289016200016b565b955050602062000229888289016200016b565b94505060406200023c888289016200016b565b93505060606200024f88828901620001d0565b92505060806200026288828901620001d0565b9150509295509295909350565b7f4e487b7100000000000000000000000000000000000000000000000000000000600052601160045260246000fd5b6000620002ab8262000147565b9150620002b88362000147565b9250827fffffffffffffffffffffffffffffffffffffffffffffffffffffffffffffffff03821115620002f057620002ef6200026f565b5b828201905092915050565b610dc2806200030b6000396000f3fe60806040526004361061007b5760003560e01c8063c19d93fb1161004e578063c19d93fb1461010b578063c392f76614610136578063d3927c1514610161578063efbe1c1c1461016b5761007b565b80637df1f1b914610080578063aa8c217c146100ab578063b60d4288146100d6578063bcead63e146100e0575b600080fd5b34801561008c57600080fd5b50610095610196565b6040516100a291906107b1565b60405180910390f35b3480156100b757600080fd5b506100c06101bc565b6040516100cd91906107e5565b60405180910390f35b6100de6101c2565b005b3480156100ec57600080fd5b506100f561030d565b60405161010291906107b1565b60405180910390f35b34801561011757600080fd5b50610120610333565b60405161012d9190610877565b60405180910390f35b34801561014257600080fd5b5061014b610344565b60405161015891906107e5565b60405180910390f35b61016961034a565b005b34801561017757600080fd5b506101806104af565b60405161018d91906107e5565b60405180910390f35b600460009054906101000a900473ffffffffffffffffffffffffffffffffffffffff1681565b60015481565b600560009054906101000a900473ffffffffffffffffffffffffffffffffffffffff1673ffffffffffffffffffffffffffffffffffffffff163373ffffffffffffffffffffffffffffffffffffffff1614610252576040517f08c379a0000000000000000000000000000000000000000000000000000000008152600401610249906108ef565b60405180910390fd5b6001544714610296576040517f08c379a000000000000000000000000000000000000000000000000000000000815260040161028d9061095b565b60405180910390fd5b6102a060016104b5565b600460009054906101000a900473ffffffffffffffffffffffffffffffffffffffff1673ffffffffffffffffffffffffffffffffffffffff166108fc6001549081150290604051600060405180830381858888f1935050505015801561030a573d6000803e3d6000fd5b50565b600560009054906101000a900473ffffffffffffffffffffffffffffffffffffffff1681565b60008054906101000a900460ff1681565b60025481565b600460009054906101000a900473ffffffffffffffffffffffffffffffffffffffff1673ffffffffffffffffffffffffffffffffffffffff163373ffffffffffffffffffffffffffffffffffffffff16146103da576040517f08c379a00000000000000000000000000000000000000000000000000000000081526004016103d1906109c7565b60405180910390fd5b6002546001546103ea9190610a16565b341461042b576040517f08c379a000000000000000000000000000000000000000000000000000000000815260040161042290610ade565b60405180910390fd5b61043560026104b5565b600560009054906101000a900473ffffffffffffffffffffffffffffffffffffffff1673ffffffffffffffffffffffffffffffffffffffff166108fc6002546001546104819190610a16565b9081150290604051600060405180830381858888f193505050501580156104ac573d6000803e3d6000fd5b50565b60035481565b600060028111156104c9576104c8610800565b5b8160028111156104dc576104db610800565b5b141561051d576040517f08c379a000000000000000000000000000000000000000000000000000000000815260040161051490610b4a565b60405180910390fd5b60008054906101000a900460ff16600281111561053d5761053c610800565b5b8160028111156105505761054f610800565b5b1415610591576040517f08c379a000000000000000000000000000000000000000000000000000000000815260040161058890610bdc565b60405180910390fd5b600160028111156105a5576105a4610800565b5b8160028111156105b8576105b7610800565b5b141561065d57600060028111156105d2576105d1610800565b5b60008054906101000a900460ff1660028111156105f2576105f1610800565b5b14610632576040517f08c379a000000000000000000000000000000000000000000000000000000000815260040161062990610c6e565b60405180910390fd5b60016000806101000a81548160ff0219169083600281111561065757610656610800565b5b02179055505b6002808111156106705761066f610800565b5b81600281111561068357610682610800565b5b141561076d576001600281111561069d5761069c610800565b5b60008054906101000a900460ff1660028111156106bd576106bc610800565b5b146106fd576040517f08c379a00000000000000000000000000000000000000000000000000000000081526004016106f490610d00565b60405180910390fd5b600354421015610742576040517f08c379a000000000000000000000000000000000000000000000000000000000815260040161073990610d6c565b60405180910390fd5b60026000806101000a81548160ff0219169083600281111561076757610766610800565b5b02179055505b50565b600073ffffffffffffffffffffffffffffffffffffffff82169050919050565b600061079b82610770565b9050919050565b6107ab81610790565b82525050565b60006020820190506107c660008301846107a2565b92915050565b6000819050919050565b6107df816107cc565b82525050565b60006020820190506107fa60008301846107d6565b92915050565b7f4e487b7100000000000000000000000000000000000000000000000000000000600052602160045260246000fd5b600381106108405761083f610800565b5b50565b60008190506108518261082f565b919050565b600061086182610843565b9050919050565b61087181610856565b82525050565b600060208201905061088c6000830184610868565b92915050565b600082825260208201905092915050565b7f6f6e6c79206c656e6465722063616e206c656e64000000000000000000000000600082015250565b60006108d9601483610892565b91506108e4826108a3565b602082019050919050565b60006020820190508181036000830152610908816108cc565b9050919050565b7f63616e206f6e6c79206c656e642074686520657861637420616d6f756e740000600082015250565b6000610945601e83610892565b91506109508261090f565b602082019050919050565b6000602082019050818103600083015261097481610938565b9050919050565b7f6f6e6c7920626f72726f7765722063616e207265696d62757273650000000000600082015250565b60006109b1601b83610892565b91506109bc8261097b565b602082019050919050565b600060208201905081810360008301526109e0816109a4565b9050919050565b7f4e487b7100000000000000000000000000000000000000000000000000000000600052601160045260246000fd5b6000610a21826107cc565b9150610a2c836107cc565b9250827fffffffffffffffffffffffffffffffffffffffffffffffffffffffffffffffff03821115610a6157610a606109e7565b5b828201905092915050565b7f626f72726f776572206e6565647320746f207265696d627572736520616d6f7560008201527f6e74202b20696e74657265737400000000000000000000000000000000000000602082015250565b6000610ac8602d83610892565b9150610ad382610a6c565b604082019050919050565b60006020820190508181036000830152610af781610abb565b9050919050565b7f63616e6e6f7420676f206261636b20746f2050454e44494e4720737461746500600082015250565b6000610b34601f83610892565b9150610b3f82610afe565b602082019050919050565b60006020820190508181036000830152610b6381610b27565b9050919050565b7f6361616e6f74207472616e736974696f6e20746f2063757272656e742073746160008201527f7465000000000000000000000000000000000000000000000000000000000000602082015250565b6000610bc6602283610892565b9150610bd182610b6a565b604082019050919050565b60006020820190508181036000830152610bf581610bb9565b9050919050565b7f63616e206f6e6c79207472616e736974696f6e20746f2061637469766520667260008201527f6f6d2070656e64696e6720737461746500000000000000000000000000000000602082015250565b6000610c58603083610892565b9150610c6382610bfc565b604082019050919050565b60006020820190508181036000830152610c8781610c4b565b9050919050565b7f63616e206f6e6c79207472616e736974696f6e20746f20636c6f73656420667260008201527f6f6d206163746976652073746174650000000000000000000000000000000000602082015250565b6000610cea602f83610892565b9150610cf582610c8e565b604082019050919050565b60006020820190508181036000830152610d1981610cdd565b9050919050565b7f6c6f616e206861736e2774206d61747572656420796574000000000000000000600082015250565b6000610d56601783610892565b9150610d6182610d20565b602082019050919050565b60006020820190508181036000830152610d8581610d49565b905091905056fea2646970667358221220919fe8f8cb6a3b617bb989a61f9e96b13f7971f4acd4852781b3187e3dc3523e64736f6c63430008090033",
  "immutableReferences": {},
  "source": "pragma solidity ^0.8.9;\n\ncontract StateMachine {\n    enum State {\n        PENDING,\n        ACTIVE,\n        CLOSED\n    }\n    State public state = State.PENDING;\n    uint public amount;\n    uint public interest;\n    uint public end;\n    address payable public borrower;\n    address payable public lender;\n    \n    constructor(\n        uint _amount,\n        uint _interest,\n        uint _duration,\n        address payable _borrower,\n        address payable _lender\n        ) {\n            amount = _amount;\n            interest = _interest;\n            end = block.timestamp + _duration;\n            borrower = _borrower;\n            lender = _lender;\n        }\n        \n    function fund() payable external {\n        require(msg.sender == lender, \"only lender can lend\");\n        require(address(this).balance == amount, \"can only lend the exact amount\");\n        \n        _transitionTo(State.ACTIVE);\n        borrower.transfer(amount);\n    }\n    \n    function reimburse() payable external {\n        require(msg.sender == borrower, \"only borrower can reimburse\");\n        require(msg.value == amount + interest, \"borrower needs to reimburse amount + interest\");\n        \n         _transitionTo(State.CLOSED);\n        lender.transfer(amount + interest);\n    }\n    \n    function _transitionTo(State to) internal {\n        require(to != State.PENDING, \"cannot go back to PENDING state\");\n        require(to != state, \"caanot transition to current state\");\n        \n        if (to == State.ACTIVE) {\n            require(state == State.PENDING, \"can only transition to active from pending state\");\n            state = State.ACTIVE;\n        }\n        if (to == State.CLOSED) {\n            require(state == State.ACTIVE, \"can only transition to closed from active state\");\n            require(block.timestamp >= end, \"loan hasn't matured yet\");\n            state = State.CLOSED;\n        }\n    }\n}\n\n\n\n",
  "sourcePath": "/Users/jacob/Documents/smart_contracts/loan_state_machine/contracts/StateMachine.sol",
  "compiler": {
    "name": "solc",
    "version": "0.8.9+commit.e5eed63a.Emscripten.clang"
  },
  "schemaVersion": "3.4.3",
  "updatedAt": "2021-10-22T02:08:50.436Z",
  "networkType": "ethereum",
  "devdoc": {
    "kind": "dev",
    "methods": {},
    "version": 1
  },
  "userdoc": {
    "kind": "user",
    "methods": {},
    "version": 1
  }
}